:020000040800F2
:1000000080D80020C1010008C9010008E5010008EE
:10001000CD010008CF010008D10100080000000058
:10002000000000000000000000000000A1850008A2
:10003000D50100080000000041580008A98A000806
:10004000DB010008DB010008DB010008DB01000820
:10005000DB010008DB010008DB010008DB01000810
:10006000DB010008DB010008DB010008DB01000800
:10007000DB010008DB01000815130008211300084C
:10008000DB010008DB010008DB010008DB010008E0
:10009000DB010008DB010008DB010008DB010008D0
:1000A000DB010008DB010008DB010008DB010008C0
:1000B000DB010008DB010008DB010008DB010008B0
:1000C000DB010008DB010008DB010008DB010008A0
:1000D000DB010008DB010008DB010008DB01000890
:1000E000DB010008DB010008DB010008DB01000880
:1000F000DB010008DB010008DB010008DB01000870
:10010000DB010008CD5E0008DB010008DB01000810
:10011000DB010008DB010008E98C0008DB010008B6
:10012000DB0100082D130008DB010008391300086B
:10013000DB01000865130008DB010008DB01000893
:10014000DB010008DB010008DB0100089D55000809
:100150004913000855130008DB010008DB01000803
:10016000DB010008DB010008DB010008DB010008FF
:10017000DB010008DB010008DB01000800000000D3
:10018000DB010008DB010008DB010008DB010008DF
:10019000DB010008DB010008DB010008DB010008CF
:1001A000DB010008DB010008DB010008DFF80CD0F0
:1001B00000F0D6FC00480047C59A020880D800200D
:1001C0000648804706480047FEE7FEE7FEE7FEE7F1
:1001D000FEE7FEE7FEE7FEE7FEE7FEE72D8C000800
:1001E000AD010008704669460EF0FCF8FFF7FEFF0F
:1001F0002DE9F05F0546002092469B46884606465C
:10020000814640241BE0284641464746224600F0EE
:10021000F7FB53465A46C01A914110D3114618466F
:10022000224600F0DEFB2D1A67EB01084F462246FE
:100230000120002100F0D5FB17EB00094E41201EE4
:10024000A4F10104DFDC484631462A464346BDE8B6
:10025000F09F2DE9F0410024061B254671F10006B0
:1002600005DA01240027D0EB070067EB0101161E19
:1002700073F1000605DA0027D2EB0702012567EBD0
:100280000303FFF7B5FF86460E4617469C46AC4271
:1002900004D00025D0EB050E65EB010624B100204B
:1002A000D2EB000760EB030C704631463A466346DA
:1002B000BDE8F08100487047B08F0A08A0F16101E5
:1002C000192900D820387047A0F14101192900D818
:1002D000203070470649074A0868504343F2390204
:1002E00010440860400870470149086070470000EA
:1002F000000000C06D4EC64110B5431A934209D2AA
:100300008318881803E010F8011D03F8011D521E20
:10031000F9D210BD40EA01039B0703D009E008C9E8
:10032000121F08C0042AFAD203E011F8013B00F8BA
:10033000013B521EF9D210BDD2B201E000F8012BF0
:10034000491EFBD270470022F6E710B513460A4655
:1003500004461946FFF7F0FF204610BD10B50446CD
:1003600004E00B7800F8013B03B1491C521EF8D29F
:10037000204610BDCAB2401E10F8011F8A4202D0AA
:100380000029F9D100207047421C10F8011B0029F8
:10039000FBD1801A704710B5002200E0521C835C2C
:1003A0008C5CA34201D1002BF8D1D8B2E1B2401A43
:1003B00010BDCBB203E00178994203D0401C521E1D
:1003C000F9D20020704730B504460020034600E013
:1003D0005B1C934203D2E05CCD5C401BF8D030BD87
:1003E000034611F8012B00F8012B002AF9D1184619
:1003F000704730B505460020034600E05B1C934281
:1004000005D2EC5CC85C201A01D1002CF6D130BDBD
:1004100007280FD2DFE800F00406080E0E0C0A00D1
:1004200005A070470AA0704713A070471DA0704731
:1004300022A070472BA070474E6F206572726F72BA
:1004400020286572726E6F203D2030290000000068
:1004500045444F4D202D2066756E6374696F6E2084
:10046000617267756D656E74206F7574206F66209C
:1004700072616E67650000004552414E4745202D70
:100480002066756E6374696F6E20726573756C7427
:10049000206E6F7420726570726573656E74616230
:1004A0006C650000454E4F4D454D202D206F7574F5
:1004B000206F66206D656D6F7279000045494E565C
:1004C000414C202D20696E76616C696420617267F1
:1004D000756D656E7420746F2066756E6374696FD8
:1004E0006E000000556E6B6E6F776E206572726FD6
:1004F000720000002DE9F0410E460546002400E0A0
:10050000641C285DFFF7E0FE0746305DFFF7DCFE68
:10051000381A02D1295D0029F2D1BDE8F0812DE918
:10052000F0410546002090460E46044600E0641C5B
:1005300044450BD2285DFFF7C7FE0746305DFFF745
:10054000C3FE381A02D1295D0029F0D1BDE8F0813F
:100550002DE9FE4F804681EA0300C00F0C46009053
:1005600021F0004123F00045B8EB0200A94105D27B
:100570004046214690461C460B46024623F000406A
:10058000104347D0270DC7F30A00C3F30A51029066
:10059000401A019040286BDAC3F3130040F4801B2B
:1005A0000098924620B10023D2EB030A63EB0B0BB9
:1005B00001985946C0F14002504600F012FA064632
:1005C0000D4650465946019A00F02AFA10EB0800F1
:1005D0006141002487EA115284EAE7731A4340D04C
:1005E000009A62B3019A012A4FEA075215DC001BF8
:1005F00061EB02014FF0004202EA0752CDE90042EE
:10060000001C41F5801132462B4600F02AFA03B057
:10061000BDE8F08F40462146F9E7001B61EB02017F
:10062000001C41F5801300185B412018A2F500174B
:1006300047EB030140EAD570B6196D4111E06D0832
:100640004FEA360645EAC0754FEA0752001B61EBD8
:100650000201001C41F5801149084FEA30000019E1
:10066000514132462B4603B0BDE8F04F00F0EAB9E5
:100670000098012240000023D0EB020263EBE073FC
:10068000009821464FEAE074B8EB000061EB0401EA
:10069000E9E783F000435BE781F0004158E72DE98B
:1006A000FE4F81EA030404F0004421F0004100946D
:1006B0004FF0000B23F0004350EA01045ED052EAF1
:1006C00003045BD0C3F30A54C1F30A552C44A4F2CB
:1006D000F3340194A0FB0254C1F3130141F48011DF
:1006E000C3F3130343F4801301FB024400FB034EE6
:1006F000840A970A44EA815447EA8357A4FB0768AF
:1007000002958D0A05FB07854FEA932C04FB0C54D8
:100710002705029D4FEA065847EA1637B5EB08054C
:100720006EEB070C870E920E47EA811742EA83129E
:10073000A7FB0201B6EB0B0164EB00042B0D43EAAF
:100740000C335E1844EB1C50DA465146E7FB0201BD
:10075000C5F313044FEA0B3343EA14534FEA043250
:10076000019C43EA0603A4F10C040294009CCDE929
:1007700000B400F076F903B0BDE8F08F0020014628
:10078000F9E72DE9F04D81EA030404F0004B21F074
:10079000004514464FF0000A23F0004150EA0502DC
:1007A00020D054EA01021DD0C5F30A570246C5F312
:1007B0001303C1F31300C1F30A5640F4801543F448
:1007C0008013A7EB0608101BD64608F2FD3873EB22
:1007D000050002D308F1010801E092185B41B8F16D
:1007E000000F03DA00200146BDE8F08D00204FF431
:1007F0008011064684460EE0171B73EB050705D3F0
:10080000121B63EB050306434CEA010C49084FEA4F
:10081000300092185B4150EA0107EDD152EA030023
:1008200012D082EA040083EA0501084305D0101BB8
:10083000AB4106D20122002306E000224FF0004324
:1008400002E06FF0010253101AEB06004CEB085166
:1008500010EB0A0041EB0B01BDE8F04D00F0F2B8DF
:1008600030B5041E71F1000404DB4FF00044404237
:1008700064EB0101141E73F1000405DB1C464FF00C
:100880000043524263EB0403101A8B4101D2012052
:1008900030BD002030BD30B5041E71F1000404DB12
:1008A0004FF00044404264EB0101141E73F1000458
:1008B00005DB1C464FF00043524263EB0403801AF1
:1008C000994101D2012030BD002030BD0EB5C10FCD
:1008D00080EAE0700844CA07002140F233438DE803
:1008E0000E000A460B4600F0BCF803B000BD0EB582
:1008F00040F2334102910021CDE900110A460B4636
:1009000000F0AFF803B000BD70B5C1F30A5201F0BA
:1009100000450024C1F3130140F2FF3341F480117C
:100920009A4201DA002070BD40F233439A42A2F2AB
:10093000334203DC524200F063F800E090402C4365
:10094000F1D0404270BDC1F30A5210B5C1F313019A
:1009500040F2FF3341F480119A4201DA002010BDC9
:1009600040F233439A42A2F2334203DC524200F097
:1009700047F810BD904010BDA0E8004FF0C040F80F
:1009800004DB01B5AFF30080BDE8024001C10020E7
:10099000704700F12C080C4658F8040DAFF30080A6
:1009A00058F8040D8546200008BF012038E9F00002
:1009B00018E9004F704730B50B4601460020202251
:1009C000012409E021FA02F59D4205D303FA02F55C
:1009D000491B04FA02F52844151EA2F10102F1DCBC
:1009E00030BD202A04DB203A00FA02F100207047D3
:1009F0009140C2F1200320FA03F31943904070475D
:100A0000202A04DB203A21FA02F00021704721FA63
:100A100002F3D040C2F120029140084319467047CA
:100A2000202A06DBCB17203A41FA02F043EAE073B2
:100A300006E041FA02F3D040C2F12002914008439F
:100A40001946704710B5141E73F1000408DA401CF3
:100A500041F1000192185B411A4301D120F00100DD
:100A600010BD2DE9F04D92469B4611B1B1FA81F2CD
:100A700002E0B0FA80F220329046FFF7B2FF04465F
:100A80000F4640EA0A0041EA0B0153465A46084322
:100A900013D0114653EA010019D0C8F14002504664
:100AA000FFF7AEFF05460E46504659464246FFF751
:100AB00098FF084305D0012004E020463946BDE8F0
:100AC000F08D0020054346EAE0762C4337430A9830
:100AD0006305E40AA0EB08000022FD0A44EA47543B
:100AE0000A3002D500200146E9E7010510196941E5
:100AF000DDE9084500196941BDE8F04DA2E7C1F301
:100B00000A52C1F3130140F2FF3341F480119A42BB
:100B100002DA00200146704740F233439A42A2F2C3
:100B2000334202DC5242FFF76BBFFFF75ABF0000AF
:100B300030B5041E71F1000404DB4FF00044404264
:100B400064EB0101141E73F1000405DB1C464FF039
:100B50000043524263EB0403994208BF904230BD08
:100B6000064C074D06E0E06840F0010394E80700FA
:100B700098471034AC42F6D3FFF71CFBF4EB0C089B
:100B800034EC0C0870B58C1810F8015B15F00703F5
:100B900001D110F8013B2A1106D110F8012B03E016
:100BA00010F8016B01F8016B5B1EF9D12B0705D41E
:100BB0000023521E0DD401F8013BFAE710F8013B67
:100BC000CB1A921C03E013F8015B01F8015B521E83
:100BD000F9D5A142D8D3002070BD000002F0F2B8D0
:100BE00070B540F220260546C2F2000600200C46F1
:100BF000C6E90000C6E90200C6E90400C6E906002D
:100C0000062004210022A5F0F7FF70610120A5F065
:100C100079FF30614FF4F0508CF0D2FE306018B1A3
:100C20004FF4F051FFF78FFB4FF4A06070602DB1CF
:100C3000062004210022A5F0DFFFF0610020C6E9B4
:100C40000800C6E90A00C6E90C00C6E90E00042047
:100C500004210022A5F0D0FF70630120A5F052FF0F
:100C600030634FF4F0508CF0ABFE306218B14FF4AB
:100C7000F051FFF768FB4FF4A06070622CB10620C2
:100C800004210022A5F0B8FFF063A5F0C3FCD6E96B
:100C900004123068B2FA82F2B1FA81F152094909BC
:100CA000B0FA80F0114340090843D6E90C21336AB9
:100CB000B1FA81F149090843B2FA82F149090843BE
:100CC000B3FA83F14909084370BD00002DE9F04FE4
:100CD00081B040F22025C2F200050746286B0E467F
:100CE0004FF0000A4FF0FF3198469346C2F800A03B
:100CF000A6F0ECFB56B305F12C0915E0AA6AAB6A25
:100D00001144C41AB442C8BF344638462246FFF7DD
:100D1000F3FAA86A361B2044A862DBF800002744D7
:100D20002044CBF8000011D0686AA96A814202D041
:100D3000E96A0029E2D1686B49464246A6F0C2FA48
:100D400020B1C5F828A0686AE96AD7E7286B0021B6
:100D500000220023A5F0E6FF002001B0BDE8F08FDF
:100D60002DE9F04F81B040F22025C2F20005074680
:100D700028690E464FF0000A4FF0FF31984693461F
:100D8000C2F800A0A6F0A2FB56B305F10C0915E0CD
:100D9000AA68AB681044CC1AB44288BF34463946BE
:100DA0002246FFF7A9FAA868361B2044A860DBF8A2
:100DB000000027442044CBF8000011D06968A868DF
:100DC000884202D0E8680028E2D168694946424674
:100DD000A6F078FA20B1C5F808A06968E868D7E7F6
:100DE0002869002100220023A5F09CFF002001B00B
:100DF000BDE8F08F80B533200721A5F093FA3720A6
:100E0000A5F032FC3C20A5F03FFC3C20A5F04CFCBA
:100E1000002010210222A5F03BFA4FF47A5004F092
:100E200041FD4FF47A5004F059FE42F2907042F6C0
:100E30009041C2F20000C2F200014FF4207201237F
:100E400004F0E0FD41F6905042F29021C2F2000021
:100E5000C2F200014FF42072012304F069FD012069
:100E60000E2104F07BFF01200E21BDE8804004F03C
:100E7000EFBE000070B584B04DF6C53504460020C5
:100E8000C0F60B05039001904EF62170294640F202
:100E90009D1200F0B7FA4EF60170294640F29F12FB
:100EA00000F0B0FA40F22025C2F20005686BA6F00F
:100EB00001FA20B1686B02A903AAA6F0B3FA2E6A60
:100EC000A86B4FF4A0623044002C07BF41F690514C
:100ED000C2F2000142F29021C2F20001FFF70CFAC7
:100EE000686BA96B03AA3144029102A90023002474
:100EF000A6F04CF8A86B00F5A060A863A86BB0F54D
:100F0000F05FA8BFAC63E86B68B1A6F0D3F920B17D
:100F1000E86B02A903AAA6F085FAE86B01A903AA67
:100F20000023A6F033F8039804B070BD70B584B008
:100F30004DF6C53504460020C0F60B050390019020
:100F40004EF62070294640F25D1200F05BFA4FF435
:100F50006F40294640F25F1200F054FA40F220251B
:100F6000C2F200056869A6F0A5F948B1686902A94E
:100F700003AAA6F057FA02984FF4A061FFF7E3F92D
:100F80002E68A8694FF4A0623118002C07BF42F206
:100F90009070C2F2000042F69040C2F20000FFF7EB
:100FA000ABF96869A96903AA3144029102A9002337
:100FB0000024A5F0EBFFA86900F5A060A861A8696E
:100FC000B0F5F05FA8BFAC61E86968B1A6F072F94E
:100FD00020B1E86902A903AAA6F024FAE86901A9E8
:100FE00003AA0023A5F0D2FF039804B070BD00004F
:100FF00080B504F071FE04F001FFBDE88040A5F06B
:101000001FBB00007047000001464AF6DC50C2F2E8
:10101000000002F0EDBF000080B54AF6DC50C2F2DD
:10102000000002F0F7FF043818BF012080BD000067
:1010300010B582B04AF6DC5042F60041C2F2000020
:10104000C4F201010022C0E90012C0E90222C0E995
:101050000422826101208DF807009DF80710012904
:1010600019D14AF6DC54C2F200042046002100F0F7
:1010700015F8204603F034F910B1012002B010BD7C
:101080004AF6DC50C2F200004FF4006102F056FE56
:10109000002818BF012002B010BD00002DE9F04F5C
:1010A00085B0002743F630010097C4F202014A6977
:1010B000044642F400624A614A6940F6000502F4BF
:1010C00000620092009A00970A68C4F2020542F496
:1010D00080020A600A686E4602F480020092009A5A
:1010E00000970A6842F004020A600A6802F00402EB
:1010F0000092009A00970A6842F008020A600968A4
:1011000001F0080000900098022001900120029058
:10111000032003900C2004904FF4F85000902846D0
:10112000314601F055FD0420009005F58060314600
:101130004FF0040901F04CFD31200E21002201F096
:10114000F1FE312001F0DEFE40F29C3546F25846B9
:10115000C2F200054FF000604FF4403BC4F20206BB
:101160004FF4806C4FF480514FF4804220234FF4B1
:1011700000084FF4001AC5E908B94FF00309C5E9A2
:1011800000602846C5E90A98C5F830A0C5E902778D
:10119000C5E904C1C5E906232564AC6301F0DAFAA8
:1011A000284601F0FFFB40F2FC35C2F200050421A5
:1011B000C5E9091906F14801402029604FF0006196
:1011C000C5E901104FF4806028614FF480506861D8
:1011D0004FF48040A8612020E8612846C5F820B07F
:1011E000C5E90B8AEF60E563AC6301F0B3FA28460A
:1011F00001F0D8FB3B200F21002201F093FE3B20A1
:1012000001F080FE45200F21002201F08BFE4520D9
:1012100001F078FE05B0BDE8F08F000080B5134600
:101220000A4601464AF6DC50C2F2000003F08EF98D
:10123000002818BF012080BD80B582B00020019039
:101240000120ADF8020040F25060C2F20000EFF35E
:1012500005810068B1B10DF1020101AA0023A5F0DA
:1012600095FE012815D1019898B14EF60450CEF2A2
:1012700000004FF080510160BFF34F8FBFF36F8FBD
:1012800002B080BD0DF102014FF0FF320023A5F046
:1012900049FD02B080BD000080B513460A460146F4
:1012A0004AF6DC50C2F2000003F0F2F9002818BF41
:1012B000012080BD80B582B0002001900220ADF8F1
:1012C000020040F25060C2F20000EFF305810068B6
:1012D000B1B10DF1020101AA0023A5F057FE0128CA
:1012E00015D1019898B14EF60450CEF200004FF09F
:1012F00080510160BFF34F8FBFF36F8F02B080BD8D
:101300000DF102014FF0FF320023A5F00BFD02B0FA
:1013100080BD000041F68840C2F2000001F062BAD0
:1013200041F6E840C2F2000001F05CBA40F2F05031
:10133000C2F2000001F056BA4AF6DC50C2F20000D8
:10134000006C01F04FBA000040F29050C2F2000071
:1013500001F048BA4AF6DC50C2F20000C06B01F05E
:1013600041BA000070B549F21405C4F202052E68B6
:10137000F00711D00120286040F26020C2F2000086
:1013800041680968002907D40068543033F062FFCF
:101390000446700615D502E00024700611D54020E1
:1013A000286040F26020C2F2000000680121C0F80D
:1013B000AC1043F2B010C2F20000583033F04AFFD4
:1013C00004434FF48030002C286008BF70BD4EF6F7
:1013D0000450CEF200004FF080510160BFF34F8FF8
:1013E000BFF36F8F70BD000002A0A7F08DFD00BF9E
:1013F000FEE700BF4572726F725F48616E646C6594
:10140000720D00002DE9F04744F68027C2F2000774
:1014100090463A78002A37D0894644F60021824621
:10142000C0F3C620C2F20001085CCAF30221C84022
:10143000C00729D040F28864C2F2000407F1180600
:1014400008E000BF56E8000F46E8001202B1F9E7D5
:1014500085421DD0BD6900F0E3FF0146A842F1D2EC
:101460000123D4E84F0FC4E8423F02B1F9E7000678
:10147000E8D13869002301303861D4E84F0FC4E85F
:10148000423F02B1F9E7DDE70120BDE8F08700BF88
:101490005246C0F20802EFF30580002808BF1FFA89
:1014A0008AF202F140704A464346BDE8F04700F038
:1014B000D3B800002DE9F04F83B0814600294FF0EA
:1014C000000000F0C6809046B2F5807F00F2C18037
:1014D00044F68026C2F200063078002838D08A46CA
:1014E00044F60021C9F3C620C2F20001085CC9F32A
:1014F0000221C840C0072BD040F2886BC2F2000B1B
:1015000006F1180708E000BF57E8000F47E8004160
:1015100001B1F9E785421FD0B56900F081FF0446AB
:10152000A842F1D25A460123D2E84F0FC2E8413F08
:1015300001B1F9E70006E7D130695A460130306160
:101540000023D2E84F0FC2E8413F01B1F9E7DBE7E2
:10155000012003B0BDE8F08F4D46EFF30580C0F2E7
:101560000805002808BF1FFA89F5B8F1000F11D04F
:10157000B8F1080F18D80020CDE9000068465146A0
:101580004246FEF7B9FE08F0070045EA004000F1C8
:1015900040704FE0284621460022002303B0BDE8FA
:1015A000F04F00F059B800BF701CD0E84F1F4A1C24
:1015B000C0E8432F03B1F8E74FF4E02000EA01460A
:1015C000DAF80020DAF8043045EA060000F180700D
:1015D000214600F041F8A8B34FF60170A8F10808C1
:1015E00046EA0009B8F1090F0AF1080611D300BF55
:1015F00037687568484621463A462B4600F02CF875
:1016000020B3A8F108080836B8F1090F09F101095B
:10161000EED20020CDE90000684631464246FEF792
:101620006BFEFF20C7F6FF5000EA090040EA0820E1
:1016300040F00070009A019B214603B0BDE8F04FD6
:1016400000F00AB8002003B0BDE8F08F0020CDE91B
:10165000007503B0BDE8F08F2DE9F0474FF08057DB
:1016600007EAD1074FF0005644F6802C06EA9206AE
:101670004FF080453843C2F2000C924605EA53050C
:1016800030430CF1040252E8004F671C42E8007638
:1016900006B1F8E743F6002E40EA0509E0B204F48B
:1016A0007067C2F2000E49EA07370EEB0014984645
:1016B00047F040660C3454E8007FBB0103D3BFF30E
:1016C0002F8F002706E007F00047374344E80075F6
:1016D00005B1F0E77B0100F1D18052E8003F581CD2
:1016E00042E8000404B1F8E7D8B203F4706349EAB1
:1016F00003330EEB001443F040630C3454E8007FD6
:10170000BE0103D3BFF32F8F002706E007F0004789
:101710001F4344E8007505B1F0E77B0100F1AE809E
:1017200052E8003F581C42E8000404B1F8E7D8B280
:1017300003F4706349EA03330EEB001443F0406393
:101740000C3454E8007FBE0103D3BFF32F8F002772
:1017500006E007F000471F4344E8007505B1F0E7D5
:101760007B0100F18B8052E8003F581C42E80004E6
:1017700004B1F8E7D8B203F4706349EA03330EEB1F
:10178000001443F040630C3454E8007FBE0103D3DF
:10179000BFF32F8F002706E007F000471F4344E800
:1017A000007505B1F0E77B0100F1688052E8003F69
:1017B000581C42E8000404B1F8E7D8B203F470639F
:1017C00049EA03330EEB001443F040630C3454E851
:1017D000007FBE0103D3BFF32F8F002706E007F081
:1017E00000471F4344E8007505B1F0E77B0100F1B5
:1017F000458052E8003F581C42E8000404B1F8E775
:10180000D8B203F4706349EA03330EEB001443F0DB
:1018100040630C3454E8007FBE0103D3BFF32F8F25
:10182000002706E007F000471F4344E8007505B1B4
:10183000F0E77B0122D452E8003F581C42E8000444
:1018400004B1F8E7D8B203F4706249EA02320EEB51
:10185000001342F0406203F10C0454E8007FBD0124
:1018600003D3BFF32F8F002706E007F0004717438D
:1018700044E8007303B1F0E77A012DD587F0044204
:1018800002F0004321F0004119440EEB0015000165
:101890004EF800102AF0004028F000411844194486
:1018A000C5E9010154E8001F890103D2BFF32F8F5E
:1018B000002004E044E8002303B1F3E7012058B11D
:1018C0000CF1080050E8001F4A1C40E8002303B157
:1018D000F8E70120BDE8F0870CF10C0050E8001F8C
:1018E0004A1C40E8002303B1F8E70020BDE8F08778
:1018F0002DE9F04F81B044F6802A44F60025834656
:10190000C2F2000A0020C2F2000588468AF80000F0
:1019100028468021FEF717FD49F2B850C0F60A00AC
:10192000033818214FF6FF7341F2210210F8037FAC
:1019300083EA07231FB282EA4304B7F1FF3FC8BF1F
:101940005C0023B282EA4407B3F1FF3FC8BF6700DF
:101950003BB282EA4704B3F1FF3FC8BF7C0023B229
:1019600082EA4407B3F1FF3FC8BF67003BB282EA97
:101970004704B3F1FF3FC8BF7C0023B282EA4407AB
:10198000B3F1FF3FC8BF67003BB282EA4704B3F13F
:10199000FF3FC8BF7C0023B282EA4407B3F1FF3F98
:1019A000C8BF67004478837887EA04273CB282EA9C
:1019B0004706B4F1FF3FC8BF7E0037B282EA460453
:1019C000B7F1FF3FC8BF740027B282EA4406B7F1FF
:1019D000FF3FC8BF660037B282EA4604B7F1FF3F57
:1019E000C8BF740027B282EA4406B7F1FF3FC8BF00
:1019F000660037B282EA4604B7F1FF3FC8BF740001
:101A000027B282EA4406B7F1FF3FC8BF660037B28B
:101A100082EA4604B7F1FF3FC8BF740084EA03239B
:101A20001FB282EA4306B7F1FF3FC8BF5E0033B280
:101A300082EA4607B3F1FF3FC8BF77003BB282EAB4
:101A40004706B3F1FF3FC8BF7E0033B282EA4607C4
:101A5000B3F1FF3FC8BF77003BB282EA4706B3F15C
:101A6000FF3FC8BF7E0033B282EA4607B3F1FF3FB3
:101A7000C8BF77003BB282EA4706B3F1FF3FC8BF59
:101A80007E0037B282EA4603B7F1FF3FC8BF73005A
:101A900003397FF44BAFDAF8201042F26B70CEF2CC
:101AA000A510814240F09480BAF8020099B28842B1
:101AB00040F09080DAF81C00411C0028CAF81C1085
:101AC00000F08D8043F60020C2F20000002100BF2C
:101AD0004218D36801F580715F0144BF23F0406371
:101AE000D360D3695F0144BF23F04063D361D36AFD
:101AF0005F0144BF23F04063D362D36B5F0144BFF7
:101B000023F04063D363D36C5F0144BF23F0406391
:101B1000D364D36D5F0144BF23F04063D365D36EBC
:101B20005F0144BF23F04063D366D36F5F0144BFBE
:101B300023F04063D367D2F88C305F0144BF23F0B9
:101B40004063C2F88C30D2F89C305F0144BF23F070
:101B50004063C2F89C30D2F8AC305F0144BF23F040
:101B60004063C2F8AC30D2F8BC305F0144BF23F010
:101B70004063C2F8BC30D2F8CC305F0144BF23F0E0
:101B80004063C2F8CC30D2F8DC305F0144BF23F0B0
:101B90004063C2F8DC30D2F8EC305F0144BF23F080
:101BA0004063C2F8EC30D2F8FC305F0144BF23F050
:101BB0004063C2F8FC30B1F5805F89D100F036FC9B
:101BC0008146B9F1000F2ED1484601B0BDE8F08F33
:101BD000CAF820000120AAF80230CAF81C0043F617
:101BE000002040F288640026C2F200004FF48051C9
:101BF000C2F200048AF80160CAE90166CAF80C6002
:101C0000FEF7A1FB00F012FC814600281CBF49F240
:101C10000050C0F6BA20CAE90460CAF818602670FD
:101C2000B9F1000FD0D05FEACB7000F0A0800020A7
:101C3000012100BFC30800F00702EF5C01FA02F2C5
:101C40001743EF54431C03F00707DB08EE5C01FA6F
:101C500007F73743EF54831C03F00707DB08EE5CFC
:101C600001FA07F73743EF54C31C03F00707DB08FB
:101C7000EE5C01FA07F73743EF54031D03F0070743
:101C8000DB08EE5C01FA07F73743EF54431D03F01E
:101C90000707DB08EE5C01FA07F73743EF54831DB3
:101CA00003F00707DB08EE5C01FA07F73743EF5450
:101CB000C31D03F00707DB08EE5C01FA07F73743A3
:101CC000EF5400F10803DB08EF5C1743EF5400F119
:101CD000090303F00707DB08EE5C01FA07F7374357
:101CE000EF5400F10A0303F00707DB08EE5C01FA8A
:101CF00007F73743EF5400F10B0303F00707DB0846
:101D0000EE5C01FA07F73743EF5400F10C0303F0E0
:101D10000707DB08EE5C01FA07F73743EF5400F1E1
:101D20000D0303F00707DB08EE5C01FA07F7374302
:101D3000EF5400F10E0303F00707DB08EE5C01FA35
:101D400007F73743EF5400F10F0303F00707DB08F1
:101D5000EE5C01FA07F73743EF5400F11003DB089C
:101D6000EF5C11303A43FF28EA547FF463AF5FEA37
:101D70008B7040F1D3800020012100BF05EBD00320
:101D800000F0070293F8207001FA02F2174383F87B
:101D90002070431C03F0070705EBD30393F8206082
:101DA00001FA07F7374383F82070831C03F0070715
:101DB00005EBD30393F8206001FA07F7374383F864
:101DC0002070C31C03F0070705EBD30393F82060D2
:101DD00001FA07F7374383F82070031D03F0070764
:101DE00005EBD30393F8206001FA07F7374383F834
:101DF0002070431D03F0070705EBD30393F8206021
:101E000001FA07F7374383F82070831D03F00707B3
:101E100005EBD30393F8206001FA07F7374383F803
:101E20002070C31D03F0070705EBD30393F8206070
:101E300001FA07F7374383F8207000F1080305EB38
:101E4000D30393F82070174383F8207000F109033F
:101E500003F0070705EBD30393F8206001FA07F7B7
:101E6000374383F8207000F10A0303F0070705EBFE
:101E7000D30393F8206001FA07F7374383F8207003
:101E800000F10B0303F0070705EBD30393F8206081
:101E900001FA07F7374383F8207000F10C0303F0D1
:101EA000070705EBD30393F8206001FA07F73743E0
:101EB00083F8207000F10D0303F0070705EBD3034F
:101EC00093F8206001FA07F7374383F8207000F198
:101ED0000E0303F0070705EBD30393F8206001FA24
:101EE00007F7374383F8207000F10F0303F007076B
:101EF00005EBD30393F8206001FA07F7374383F823
:101F0000207000F1100305EBD30393F8207011301B
:101F10003A43FF2883F820207FF430AF5FEA4B700C
:101F200040F1D2800020012105EBD00300F0070230
:101F300093F8407001FA02F2174383F84070431C93
:101F400003F0070705EBD30393F8406001FA07F7A6
:101F5000374383F84070831C03F0070705EBD30376
:101F600093F8406001FA07F7374383F84070C31CC9
:101F700003F0070705EBD30393F8406001FA07F776
:101F8000374383F84070031D03F0070705EBD303C5
:101F900093F8406001FA07F7374383F84070431D18
:101FA00003F0070705EBD30393F8406001FA07F746
:101FB000374383F84070831D03F0070705EBD30315
:101FC00093F8406001FA07F7374383F84070C31D68
:101FD00003F0070705EBD30393F8406001FA07F716
:101FE000374383F8407000F1080305EBD30393F8FF
:101FF0004070174383F8407000F1090303F00707AE
:1020000005EBD30393F8406001FA07F7374383F8F1
:10201000407000F10A0303F0070705EBD30393F8C0
:10202000406001FA07F7374383F8407000F10B0373
:1020300003F0070705EBD30393F8406001FA07F7B5
:10204000374383F8407000F10C0303F0070705EBFA
:10205000D30393F8406001FA07F7374383F84070E1
:1020600000F10D0303F0070705EBD30393F840607D
:1020700001FA07F7374383F8407000F10E0303F0CD
:10208000070705EBD30393F8406001FA07F73743DE
:1020900083F8407000F10F0303F0070705EBD3034B
:1020A00093F8406001FA07F7374383F8407000F176
:1020B000100305EBD30393F8407011303A43FF2827
:1020C00083F840207FF430AF5FEA0B7040F1D2809C
:1020D0000020012105EBD00300F0070293F86070A7
:1020E00001FA02F2174383F86070431C03F00707FC
:1020F00005EBD30393F8606001FA07F7374383F8E1
:102100006070831C03F0070705EBD30393F860604E
:1021100001FA07F7374383F86070C31C03F0070721
:1021200005EBD30393F8606001FA07F7374383F8B0
:102130006070031D03F0070705EBD30393F860609D
:1021400001FA07F7374383F86070431D03F0070770
:1021500005EBD30393F8606001FA07F7374383F880
:102160006070831D03F0070705EBD30393F86060ED
:1021700001FA07F7374383F86070C31D03F00707C0
:1021800005EBD30393F8606001FA07F7374383F850
:10219000607000F1080305EBD30393F860701743F8
:1021A00083F8607000F1090303F0070705EBD30320
:1021B00093F8606001FA07F7374383F8607000F125
:1021C0000A0303F0070705EBD30393F8606001FAF5
:1021D00007F7374383F8607000F10B0303F007073C
:1021E00005EBD30393F8606001FA07F7374383F8F0
:1021F000607000F10C0303F0070705EBD30393F8BD
:10220000606001FA07F7374383F8607000F10D034F
:1022100003F0070705EBD30393F8606001FA07F7B3
:10222000374383F8607000F10E0303F0070705EBF6
:10223000D30393F8606001FA07F7374383F86070BF
:1022400000F10F0303F0070705EBD30393F8606079
:1022500001FA07F7374383F8607000F1100305EBCC
:10226000D30393F8607011303A43FF2883F860205D
:102270007FF430AF687F95F83D1095F85D2040F011
:102280008000687741F0800095F87D1095F85F3008
:1022900085F83D0042F0800085F85D0041F0800047
:1022A00085F87D0043F0400085F85F0040F28865C6
:1022B000C2F2000501270AF1180607E056E8000FF0
:1022C00046E8001202B1F9E784421BD0DAF8184060
:1022D00000F0A6F80146A042F0D2D5E84F0FC5E8BD
:1022E000427F02B1F9E70006E8D1DAF810000023D6
:1022F0000130CAF81000D5E84F0FC5E8423F02B1DF
:10230000F9E7DBE74FF6007BDAF81430DAF81C2047
:10231000C0F2003B5846FFF79FF9B8F1000F3FF4B9
:1023200053AC9AF8000000287FF44EAC40F2886469
:102330000127C2F200048AF8007007E056E8000F97
:1023400046E8001202B1F9E785421BD0DAF81850CE
:1023500000F066F80146A842F0D2D4E84F0FC4E876
:10236000427F02B1F9E70006E8D1DAF81000002355
:102370000130CAF81000D4E84F0FC4E8423F02B160
:10238000F9E7DBE70BF1010000220023FFF764F916
:10239000484601B0BDE8F08FF0B581B044F6802426
:1023A000C2F20004207818B1012001B0F0BD00BFD6
:1023B00040F288660120C2F2000604F1180720707E
:1023C00008E000BF57E8000F47E8001202B1F9E744
:1023D000854219D0A56900F023F80146A842F1D240
:1023E0000123D6E84F0FC6E8423F02B1F9E70006E5
:1023F000E8D12069002301302061D6E84F0FC6E8FC
:10240000423F02B1F9E7DDE74FF60170C0F200305C
:1024100000220023FFF720F9012001B0F0BD0000E9
:1024200041F20400CEF20000006870474EF6FC5006
:10243000CEF20000016841F08071016041F20001BC
:10244000CEF20001086840F0010201200A607047E6
:1024500040F61052C2F20002537A13B9537AD35C99
:1024600013B10120704700BF537A02EB8303586019
:10247000507A13180020187292F809C00CF1010369
:1024800053720CF130020A7042F63A72A1F8012040
:10249000C87070472DE9F0410B680268012B1FD10D
:1024A000D1E9073422F4F842D1E901E7D1E9036523
:1024B000D1E9058C496A1A4322431143426847F621
:1024C000FF739A4342EA0E023A4332432A4342EAF6
:1024D000080242EA0C02016042600020BDE8F0817F
:1024E00047F6FF7322EA030CD1E90132D1E903E494
:1024F00043EA0C0301F114081A4398E8E00142EAA8
:102500000E0222432A433243496A3A4342EA08020E
:10251000114301600020BDE8F081000002464069DF
:1025200040EA41010020516170470000F0B581B0E0
:1025300000240094164691E88C00C9681A436FF095
:102540001F0303EB47131A4342EA4121009100990C
:102550000546016100F022FCA969890602D42046E3
:1025600001B0F0BDD6B10746701C12D1A869800633
:1025700018D5A869800615D5A869800612D5A8695E
:102580008006F3D40024204601B0F0BDA86980067F
:1025900008D500F003FCC01BB042F7D90324204645
:1025A00001B0F0BD0024204601B0F0BD2DE9F0419E
:1025B0008368012A38D140F6FF72CFF60F721A40B5
:1025C000CB684FF20006CFF6FF764F6906EB033378
:1025D0000026CFF6F07606EB07571A43C36842EAA7
:1025E000070CD1E900768D686FF00F0203F070439D
:1025F00002EB06126FF0FF06013F0C6906EB0526A1
:1026000000253B43CFF6FF7589691A4305EB044566
:10261000324301392A4342EA0161C0F808C0C1606F
:102620000020BDE8F08100BF03F0704CD1E900321A
:10263000D1E902E401F110084FF20001013B6FF013
:102640000F07CFF6FF7198E8600107EB02126FF0F9
:10265000FF0701EB0431002443EA0C0307EB0E27CC
:10266000CFF6FF741A4304EB054500243A43CFF636
:10267000F074114304EB06562943A8F101043143D9
:1026800041EA046181600020BDE8F081002804BFB8
:102690000120704710B50446407918B101206071DF
:1026A000002010BD00202071204600F005F8012018
:1026B0006071002010BD000070470000B0B5D0F878
:1026C00008E0BEF1800F05D14FF480714165012013
:1026D000B0BD00BF90F834C0BCF1010F04BF0220B0
:1026E000B0BD4FF0010C80F834C090F835C0BCF19B
:1026F000010F4FF0020C18D180F835C00068049D1E
:10270000D0F800C0BEF1400F4CF480240460036197
:102710000B46456004BF13460A468360C2600168E9
:102720004FF0000C41F0010101606046B0BD0000B7
:1027300090F83510022909D1052180F8351000687C
:10274000016821F00101016000207047802141658E
:1027500001207047B0B5002840D090F8351002290C
:1027600004BF0220B0BD02686FF00F034AF6AB2130
:10277000D2F800C053FA82F5CAF6AA21A5FB011EC1
:102780002CF0010111600021212311605160916042
:10279000D1601161536144F2F4034FEA1E1CC0F68C
:1027A0000B0313F80C3040F2FF34A2435F2D4FF0BF
:1027B0003F0588BF0432C0E9162305FA03F3C0E9D8
:1027C0000F11C0E91111C0E913119360416580F840
:1027D000351080F834100846B0BD00BF0120B0BDF0
:1027E000406D7047F0B581B004460020009040F283
:1027F0001000C2F200000268D4E9166048F2B51376
:1028000037680821C1F64E3381403942A2FB0325C7
:102810000CD0226813685B0708D5136823F0040303
:102820001360B160616D41F001016165012181407A
:10283000394208D022685269120604D5B160616D30
:1028400041F00201616504218140394208D02268CB
:102850001268920704D5B160616D41F004016165B1
:1028600010218140394217D020680268120713D521
:10287000B16002680168520308D4C90508D4016830
:1028800021F008010160216C21B905E008033FD463
:10289000216C09B120468847E16D202000FA01F241
:1028A0003A4241D020680368DB063DD5B26094F817
:1028B00035300268052B1BD122F0160202604269F6
:1028C00022F080024261226C0AB9A26C1AB102683D
:1028D00022F0080202603F208840B060002084F8A7
:1028E0003400012084F83500216D002952D157E0D1
:1028F0000168520310D4C90512D4016821F01001F7
:102900000160002084F83400012084F8350007E0DD
:10291000A16C0029BED1BFE7080301D4616C00E0BF
:10292000E16B09B120468847606DC8B3606DC00790
:102930002ED0052084F835002068A90A026822F00C
:1029400001020260009A01328A4200921AD802689B
:10295000D20717D0009A01328A42009212D8026838
:10296000D2070FD0009A01328A4200920AD8026838
:10297000D20707D0009A01328A42009202D8026838
:10298000D207DFD1002084F83400012084F835001C
:10299000E16C29B1204601B0BDE8F040084700BF16
:1029A00001B0F0BD2DE9F041044600F0F7F9002C2C
:1029B0004ED00546002084F83400022084F835000B
:1029C0002168086820F0010008600868C00708D086
:1029D00000F0E4F9401B05286CD821680868C0079E
:1029E000F6D1086848F23F02CFF21002D4E901356F
:1029F000024004F10C0E9EE8C1511A432A431043D1
:102A00003043384340EA0800626A40EA0C00042A76
:102A100040EA0E0320D1D4E90A5E206B4EEA03029D
:102A2000104308604869BEF1000F20F0030040EA3F
:102A3000050040F0040C15D0B8F5005F42D0B8F1A5
:102A4000000F51D1022D52D0012D47D055B94EE083
:102A50000120BDE8F08100BF0B60486920F007004D
:102A600040EA020C6FF00F004AF6AB2250FA81F0F8
:102A7000CAF6AA22A0FB02231A0944F2F403C0F604
:102A80000B039A5C40F2FF335F284FF03F00C1F820
:102A900014C021EA030100FA02F088BF0431C4E93E
:102AA00016128860002301220020636584F8352017
:102AB000BDE8F081032220230320636584F83520DC
:102AC000BDE8F081032DCDD8012240230120DFE8AD
:102AD00005F0030E030500BFE7E700BFAEF1C070CD
:102AE000B0FA80F0400904E0032D04D3BAD1CEF34C
:102AF00000600028B6D0012240230120636584F8DD
:102B00003520BDE8F081000070B590F834C0BCF10C
:102B1000010F46D04FF0010C80F834C0D0F858E0D7
:102B200090F835C0BCF1010F38D14FF0020C80F89D
:102B300035C04FF0000CC0F854C0D0F800C0846815
:102B4000056CC06DDCF80060402C26F48026CCF8C3
:102B50000060CCF804300B4604BF13460A463F2100
:102B600001FA00F0CCF80830CCF80C20CEF80800C0
:102B7000DCF8000040F01600CCF800002DB1DCF8C5
:102B8000000040F00800CCF80000DCF8000040F045
:102B90000100CCF80000002070BD00BF002180F8CB
:102BA0003410022070BD0000B0B5044600F0F6F805
:102BB000054640F20400C2F200000078611C18BF14
:102BC000044400BF00F0EAF8401BA042FAD3B0BDB5
:102BD0002DE9F04F82B000F13E4242F2004502F191
:102BE000FF77C4F202050A224FEAB726A84208BFBF
:102BF0000922092E38BF4FEAB7224FF0010E0026F6
:102C000000274FF00008009208E000BF023708F1EB
:102C10000108202F06F1040600F0B4800C680EFABB
:102C200008F914EA090FF1D0D1F804A00AF0030B57
:102C3000ABF10104012C19D80322846802FA07FEC3
:102C4000CA6824EA0E04BA40224382604268CAF38A
:102C5000001522EA090205FA08F54FEA480C6FEA66
:102C60000E044FF0010E2A4342600BE00322BA40EB
:102C7000D443BBF1030FBC4604D1BC464FF0030B59
:102C800024E000BFC2688D68224005FA0CF52A4393
:102C9000BBF1020FC26019D16FF0030202EA5802C1
:102CA000024406F01C030F25D2F820E005FA03FACF
:102CB0000D692EEA0A0E05FA03F343EA0E031362C6
:102CC000D1F804A04FF0010E0AF0030B02680BFAD2
:102CD0000CF322401A435FEACA03026096D5002231
:102CE00043F644030192C4F202031A6843F6004C0F
:102CF00042F480421A601A68C4F2010C02F4804265
:102D00000192019A28F003024FF6084A6244CFF676
:102D1000FF7A52F80A3006F00C050F24AC40A343AA
:102D2000009C04FA05F52B4342F80A30DCF8002039
:102D30004B6842EA0905DC0358BF22EA0905CCF8D2
:102D40000050DCF804209C0342EA090558BF22EA3F
:102D50000905CCF80450DCF80820DC0242EA090539
:102D600043F60C4458BF22EA0905CCF80850C4F2D7
:102D7000010422689B0242EA090558BF22EA0905BC
:102D8000256043E702B0BDE8F08F000042F200008A
:102D9000CEF204000068000C704700004AF6047090
:102DA000C2F200000068704740F204004AF6047165
:102DB000C2F20000C2F2000100780A681044086004
:102DC0007047000080B543F60040C4F2020001687D
:102DD00041F400710160016841F4806101600320E9
:102DE00000F0CCF80F2000F005F800F04BF80020C0
:102DF00080BD000010B586B03620002100220024DE
:102E000000F090F8362000F07DF843F64000019481
:102E1000C4F20200016841F01001016000686946D7
:102E200000F010000190019801A800F0C9FA00F02C
:102E3000E7FA4DF683614000C4F21B31A0FB0101AB
:102E40004FF0FF3000EB914141F6485041F2000253
:102E5000C2F20000C4F2000240F2E733C0E90021F0
:102E6000C0E90243046101F0B5FC18B1012006B0CD
:102E700010BD00BF41F64850C2F2000001F0DAFC7C
:102E800006B010BD82B0002043F640010190C4F2AC
:102E900002014A6842F480424A604A6802F4804271
:102EA0000192019A0090086840F08050086008681C
:102EB00000F080500090009802B07047002848BF92
:102EC000704700F01F01012202FA01F14EF2802248
:102ED0004009CEF2000242F820107047002848BF97
:102EE000704700F01F01012202FA01F14EF2801238
:102EF0004009CEF2000242F82010BFF34F8FBFF31B
:102F00006F8F7047002848BF704700F01F010122F3
:102F100002FA01F14EF200124009CEF2000242F82C
:102F20002010704710B54EF60C5CCEF2000CDCF8A9
:102F30000030C3F3022E8EF00704042C28BF0424B3
:102F4000BEF103034FF0FF3E0EFA04F438BF002336
:102F5000A14399400EFA03F39A43114300F00F0284
:102F6000043A624409010C3200F16043B0F1FF3FC2
:102F7000C8BF03F56442117010BD00004EF60C513D
:102F8000CEF200010A684FF6FF031A4060F30A22EE
:102F900042F0806040F0FD700860704770B582B00C
:102FA0000020019043F64000C4F202000168402670
:102FB00041F0805101600068C4F20E2600F080509C
:102FC0000190019847F204050120C4F20005306029
:102FD000FFF7E4FE044600BF2868C00306D4FFF7ED
:102FE000DDFE001BB0F57A7FF6D90EE0012070609F
:102FF000FFF7D4FE044600BF2868800308D4FFF71B
:10300000CDFE001BB0F57A7FF6D9032002B070BD6B
:10301000002002B070BD0000F0B581B00446006829
:1030200043F6700610F0430FC4F2020633D068274F
:10303000C4F2472700203860FFF7B0FE054600BF06
:1030400056F8700C000105D5FFF7A8FE401B0228BA
:10305000F6D9AFE02068C1076AD1810771D4400674
:1030600008D5E168D4E90102090641EA801040EA86
:103070000270706101203860FFF790FE054600BFC6
:1030800056F8700C000105D4FFF788FE401B02289B
:10309000F6D98FE0206810F00C0F68D06827C4F2D2
:1030A00047270020B860FFF779FE054656F8700CF8
:1030B000800005D5FFF772FE401B0228F6D979E0A3
:1030C0002068410713D5B169D4E9042301F0E04138
:1030D00041EA821141EA0361256AB161F1696FF049
:1030E000FF0221F4F85102EB05221143F1610007C0
:1030F0000FD5B069216900F07060A26940EA8110C3
:1031000040EA0270636AB061F06920F4403018430D
:10311000F0610120B860FFF741FE054656F8700CDB
:10312000800023D4FFF73AFE401B0228F6D941E085
:10313000D4E90121090741EA8211716181077FF514
:103140008EAF7169626801F0E041E36841EA821183
:1031500041EA0361E5697161F1696A1E21F01F01AD
:103160001143F16140063FF57CAF83E7206881069B
:1031700054D50020009056F8300C47F2000740F07C
:10318000805046F8300C56F8300CC4F2000700F0BE
:10319000805000900098386840F480703860FFF7E5
:1031A000FDFD05463868C00508D4FFF7F7FD401B54
:1031B0000228F7D9032001B0F0BD00BF306810F439
:1031C000407013D0A16A01F4407188420ED030687B
:1031D00040F64061C4F24721012220F440700A60A9
:1031E00000220A6030603068C00729D12068A16AD7
:1031F00056F8682C4FF6FF4701F4407322F4F8129A
:10320000C0F6FF770F40B3F5407F08BF3A4346F85A
:10321000682C32686FF31F3111433160C00603D44C
:10322000002001B0F0BD00BF94F82C0040F64061D2
:10323000C4F24721C1F8A003002001B0F0BD00BFD7
:10324000FFF7ACFD054641F2883730688007CDD4E2
:10325000FFF7A4FD401BB8424FF00300F5D9ECE79F
:103260002DE9F041002800F08B8043F60808C4F2F5
:1032700002080446D8F8F8030D4600F00F00884213
:1032800007D288F8F853D8F8F80300F00F00A842E6
:1032900076D12068810717D5410705D5D8F80010E9
:1032A00041F4E051C8F80010010705D5D8F8001026
:1032B00041F46041C8F80010D8F80010A26821F06D
:1032C000F0011143C8F80010C0073FD1D8F8F80347
:1032D00000F00F00A84207D988F8F853D8F8F8038F
:1032E00000F00F00A8424BD12068410707D5D8F85D
:1032F0000010E26821F4E0511143C8F80010000703
:1033000008D5D8F80000216920F4604040EAC100E7
:10331000C8F8000000F088F8D8F8001049F2785298
:10332000C1F30311C0F60A02515C40F2100220FA08
:1033300001F140F20800C2F200000068C2F200028F
:103340001160FFF757FD0020BDE8F0816068811E25
:10335000022907D258F8081C89015CBF0120BDE88A
:10336000F08111E0012807D158F8081C89035CBFDF
:103370000120BDE8F08107E058F8081C890703D454
:103380000120BDE8F08100BFD8F8001021F0030152
:103390000843C8F80000FFF701FD064641F28837F0
:1033A000D8F80000616800F00C00B0EB810F8DD000
:1033B000FFF7F4FC801BB842F2D90320BDE8F0818E
:1033C0000F22026043F60802C4F20202136803F0FF
:1033D00003034360136803F0F0038360136803F48E
:1033E000E053C360D2F800C04FF4E05303EADC03BB
:1033F0000361D2F8F80300F00F0008607047000086
:1034000040F2100043F60801C2F20000C4F20201CB
:103410000068096849F28852C1F38221C0F60A02A5
:10342000515CC8407047000010B543F60404C4F274
:103430000204606800F00C0008280BD0042819BFB3
:1034400042F20040C0F2F40047F64000C0F27D10A6
:1034500010BD00BF206821682368490247F640017B
:10346000C0F27D1100F03F02C3F388105CBF42F24E
:103470000041C0F2F401A1FB00010023FCF7B8FEFB
:1034800021680222C1F3014102EB4101B0FBF1F0DE
:1034900010BD00002DE9F04182B000286AD004463A
:1034A000007843F60006C007C4F202060BD0B068ED
:1034B00000F00C00042840F0A1803068800302D5A1
:1034C0006068002856D0207880071AD5B06810F0C0
:1034D0000C0F09D0B06800F00C00082840F0A8805C
:1034E0007068400200F1A4803068800702D5E0686F
:1034F00001283FD13068216920F0F80040EAC1007E
:1035000030602078000739D4207840074ED4A56970
:103510005DB3B06800F00C00082840F0BD80012DBC
:1035200028D07068E16900F480028A4222D1216AC1
:1035300000F03F028A421DD147F6C071626A014025
:10354000B1EB821F16D1A26A0023CFF6FF7303EB03
:10355000C23200F440316FF30F0291420AD1E16AA6
:1035600000F07060B0EB016F04D1002002B0BDE844
:10357000F08100BF012002B0BDE8F0816069002841
:1035800040F20000C4F2472076D00121C0F8801E2E
:10359000FFF704FC054600BF706F8007B4D4FFF747
:1035A000FDFB401B0228F7D9DDE000BF306C10F0B6
:1035B00080580AD100200190306C40F08050306477
:1035C000306C00F080500190019847F20007C4F27F
:1035D00000073868C00541D4386840F4807038600E
:1035E000FFF7DCFB054600BF3868C00536D4FFF79F
:1035F000D5FB401B0228F7D9B5E000BFB06800F04A
:103600000C00082803D1706840023FF556AF60688F
:10361000B0F5803F07D0B0F5A02F40F08D80306826
:1036200040F480203060306840F4803030608DE0BD
:10363000E068002852D00020C4F247200121016038
:10364000FFF7ACFB054600BF306880073FF552AF7F
:10365000FFF7A4FB401B0228F6D984E0A0680128EC
:1036600005D005284ED1306F40F004003067306F30
:1036700040F0010030674FE00021C0F8801EFFF7E6
:103680008DFB0546706F80077FF53EAFFFF786FB29
:10369000401B0228F6D966E00027C4F24727002025
:1036A0003866FFF77BFB022D05460BD130688001A1
:1036B0005ED5FFF773FB401B02284FF00300F5D9DE
:1036C00054E700BF306880017FF54FAFFFF766FB1E
:1036D000401B02284FF00300F4D947E70020C4F252
:1036E000472000210160FFF759FB0546306880073D
:1036F0007FF507AFFFF752FB401B02284FF0030096
:10370000F4D933E7316F002821F001013167316FBF
:1037100021F0040131674DD0FFF740FB054641F22F
:10372000883700BF306F800756D4FFF737FB401B48
:10373000B842F7D917E000BF3168002821F4803182
:103740003160316821F4802131604FD0FFF726FBD2
:10375000054600BF306880033FF5B5AEFFF71EFB9E
:10376000401B6428F6D9032002B0BDE8F08100BFF9
:1037700004F11C052FCD08430021CFF6FF7140EA6C
:10378000821001EBC3316FF30F0140EA056008437B
:10379000706001203866FFF701FB04463068800145
:1037A0003FF5E3AEFFF7FAFA001B02284FF00300E3
:1037B000F4D9DBE6FFF7F2FA054641F2883700BF9D
:1037C000306F800708D5FFF7E9FA401BB8424FF089
:1037D0000300F5D9CAE600BFB8F1000F7FF497AE39
:1037E000306C20F08050306491E600BFFFF7D6FACD
:1037F000054600BF306880037FF565AEFFF7CEFA5F
:10380000401B64284FF00300F4D9AFE6002804BF42
:103810000120704710B504460068016821F00C01D2
:103820000160416821F060014160204600F052F8DB
:1038300000206071A060207110BD000070B50446CA
:103840000079012804BF022070BD01202071607939
:10385000012815D102200D466071FFF79FFA064638
:1038600020684168C90711D1FFF798FA801B032827
:10387000F6D3012002216071A1600021217170BD89
:103880000420A06001200021217170BD8068E060EB
:1038900028600120607100200021217170BD0000AE
:1038A000002804BF0120704710B50446407920B9B4
:1038B00000202071204600F00FF80220607120687F
:1038C000016841F004010160012060710020A060E6
:1038D00010BD00007047000070470000002804BFC2
:1038E0000120704710B50446022084F8810020684A
:1038F000002101614FF0FF31816140F21001C2F2FD
:10390000000109684EF61B42C9F2CB52A1FB02121C
:10391000016821F4803101606FF0030121EA9221F6
:1039200004310DD00268D20310D50268D20344BF1F
:1039300002685FEAC23209D50268D203F0D405E01A
:10394000D4F8841041F04001C4F88410416841F07B
:1039500008014160204600F0F7F80020C4F8840018
:1039600084F8810084F8800010BD0000002804BFA6
:10397000012070472DE9F04F81B0044690F8810096
:1039800028B9002084F88000204600F0DFF80220EB
:1039900084F8810040F21000C2F2000000684EF688
:1039A0001B41C9F2CB51A0FB01012068026822F43F
:1039B000803202606FF0030222EA912104310DD0BF
:1039C0000268D20310D50268D20344BF02685FEADE
:1039D000C23209D50268D203F0D405E0D4F88400DD
:1039E00040F04000C4F88400204602F0BFF8206A8E
:1039F00008B3204602F0CAF8216A00EB80004000BC
:103A00004902B0FBF1F14CF6CD40CCF6CC40A1FB25
:103A10000002D00800EB8003D4F834C0A1EB4301CE
:103A20000123082988BF03EBD200BCF1040F6062B8
:103A300004BF40086062D4F8048048F00200022805
:103A400004D1206C013818BF012004E0206C01383B
:103A5000B0FA80F040094302A0684FF0000B411E0D
:103A60000020022904D81A4634A353F821B0134683
:103A7000A26921680092D4E9049A0F684CF21006FA
:103A8000CFF605763E400E60D4E90D6743EA0803A1
:103A900043EA0B03E26B3343D4E909E53B431A43A2
:103AA0002A4342EA0902D1F800C042EA0A0242EA85
:103AB0000E5242EA0C020A604A684EF20F039A4321
:103AC0004A60E26A009B1A43236B4F681A433A43E9
:103AD0004A608A6848F20003CFF6F8731A408A6099
:103AE00004F144078CCFD4E91465013A2A433A43E0
:103AF00032438E686FF0FF0707EB032332431A430C
:103B00008A60CA684FF220031A40CA6004F158065E
:103B10004CCE656E1A43CB6842EA054207EB062796
:103B20001A433A43CA600121C4F8840084F8811022
:103B300084F8800001B0BDE8F08F00BF00040000F1
:103B400000080000000800007047000080B586B043
:103B5000002043F630010190C4F202014A6942F4A8
:103B600080024A614A6902F480020192019A01903E
:103B7000086840F010000860086801A900F0100013
:103B8000019001987C200190022002900120039076
:103B9000032004900620059041F20000C4F20200C8
:103BA000FFF716F806B080BD002804BF012070475B
:103BB000B0B5044690F82C000D4628B9002084F8D2
:103BC0002D00204600F012F8022084F82C00206816
:103BD000211DFEF75FFCD4E900022946FEF7E6FC52
:103BE000012084F82C000020B0BD0000B0B586B0E4
:103BF000002143F630000191C4F20200826840F6D1
:103C0000000542F0010282608268C4F2020502F0FF
:103C100001020192019A0191026801AC42F0040292
:103C20000260026802F004020192019A01910268A6
:103C300042F008020260026802F008020192019A52
:103C40000191026842F010020260026802F0100264
:103C50000192019A0191026842F02002026002681A
:103C600002F020020192019A0191016841F04001A5
:103C700001600068214600F04000019001980D208D
:103C800001900220029001200390032004900C2058
:103C900005902846FEF79CFF4CF20370019005F555
:103CA00080602146FEF794FF4FF68370019005F582
:103CB00000602146FEF78CFF4FF63F00019005F5AE
:103CC00040602146FEF784FF48F23710019005F569
:103CD00080502146FEF77CFF06B0B0BD10B504460B
:103CE00090F82C0002284FF0020008BF10BD84F8A5
:103CF0002C002068FEF712FC012084F82C00002024
:103D000010BD0000B0B5044690F82C0002284FF01A
:103D1000020008BFB0BD84F82C0020680D46FEF7F5
:103D200005FC2868012102284FF0000008BF05218A
:103D300084F82C10B0BD0000FDF764B92DE9F04106
:103D400086B00446032084F83400606C884603285B
:103D500022D14FF08050A16B40F2FF560843A06380
:103D6000A06BC0F2400600283ED020680125866383
:103D700084F834504FF4007102F02AF928B1216818
:103D800001258E63A16B0843A0630121284684F8B6
:103D9000341006B0BDE8F081B8F1000F36D0B8F5A8
:103DA000805FD6D0B8F5006F46D10021206805911C
:103DB0000491002102F086F8800141D404A9204634
:103DC00002F024FD0028C6D19DF81600400730D52A
:103DD000216D2068090402F0A7F80028BBD12068F3
:103DE000022102F001F9B6E794E80F00D4E9055783
:103DF000CDE90085029702F06FF8206800254FF4A6
:103E0000007102F0E5F80028B9D1BEE70021206872
:103E100005910491002102F055F8800110D404A905
:103E2000204602F0F3FC002895D19DF81600C0074B
:103E30000AD14FF080608EE74FF000608BE700BF43
:103E40004FF4006087E700BF216D2068090402F08D
:103E50006BF800287FF47FAF2068002102F0C4F8DF
:103E600079E700007047000080B5D0E9193ED0F82E
:103E700044C09A0F0A70C3F383624A70C3F30162AD
:103E80008A701A0CCA701A0A0A714FEA1E524B71D4
:103E9000CA80CEF303420A72CEF3C0324A72CEF326
:103EA00080328A72CEF34032CA72CEF300320A7385
:103EB0000022BCF1010F4A7336D0BCF1000F40F074
:103EC000878040F6FC72C36E02EA8E0242EA937269
:103ED0000A61C26EC2F3C2630B75C2F302634B7513
:103EE000C2F342538B75C2F38243CB75C2F3C23324
:103EF0000B76D1F810C00B7E0CF1010C03F0070318
:103F000002330CFA03FCC0F854C00B7A03F00F0E16
:103F1000012303FA0EF383655B0A03FB0CF3C3650D
:103F20004FF4007312E000BFB0F86E200EF03F03B4
:103F300042EA03420A610A694FF4806303EB82227A
:103F40004FF40073C0E91523C265C26E0366C2F365
:103F500080334B76C2F3C61302F07F028B76CA76AB
:103F6000006FC20F0A77C0F341724A77C0F38262D2
:103F70008A77C0F38352CA77C0F3405281F8202079
:103F80000022C0F3004381F8212081F82230C0F3E1
:103F9000C03381F82330C0F3803381F82430C0F37C
:103FA000403381F82530C0F3003381F82630C0F368
:103FB000812381F82730C0F30123C0B2400881F883
:103FC000283081F82900012081F82A00104680BDA0
:103FD000016840F2FF52C0F240028A63816B012205
:103FE00041F08051816380F83420104680BD00008C
:103FF00080B500F1440E9EE80C5081E80C10426D33
:10400000C1E903E2D0E91623C1E90523026E0020CD
:10401000CA6180BD10B5016D04460068090402F054
:1040200041F928B1A16B0843A063002010BD00BF77
:104030002068002101F046FFC0F3432010BD0000BE
:10404000F0B581B004460068256B416B05F00806A9
:1040500009042BD556B3E56A2DB3A66A01F05AFFC1
:104060003060206801F056FF7060206801F052FF58
:10407000B060206801F04EFFF060206801F04AFF58
:104080003061206801F046FF7061206801F042FF56
:10409000B061206801F03EFFF06106F12000A5F15B
:1040A0002001C4E90A0101B0F0BD00BF416BC905A0
:1040B00040D4416B490465D5002E63D0666A002E5A
:1040C000F1D0276A6D4639680091294601F026FF34
:1040D000796820680091294601F020FFB9682068BE
:1040E0000091294601F01AFFF968206800912946DD
:1040F00001F014FF396920680091294601F00EFF94
:10410000796920680091294601F008FFB9692068A3
:104110000091294601F002FFF869294600902068C5
:10412000203701F0FBFEA6F12000C4E9087001B0C1
:10413000F0BD00BF4FF480718163C16B4CF23A3225
:104140009143C163C16A002E21F00101C16259D1BE
:104150002906A8D5A90608D502F016F928B1A16B41
:104160000843A0632046FFF77DFEA8079BD1206887
:10417000C16A21F00801C1620121204684F834108F
:104180005EE000BF416B40F23A2211423FF48BAF38
:10419000416B89075AD4416B09075ED4416B89068C
:1041A00062D4416BC90666D4416B890503D5A16B06
:1041B00041F00801A16340F23A718163C16B40F2A2
:1041C0003A329143C16302F0DFF8A16B002E40EA5E
:1041D0000100A06358D128067FF565AF15F0300FB8
:1041E0005ED0E06B46F2A171C0F600010165FEF7FA
:1041F0009FFA00283FF457AFE06B01B0BDE8F040F4
:1042000002F0CEBA15F0220F08D002F0BDF828B1A6
:10421000A16B0843A0632046FFF724FE206840F20C
:104220003A518163012084F834000020A9072063FB
:10423000204605D001B0BDE8F04000F025BA00BF2F
:1042400001B0BDE8F04000F021BA00BFA16B41F021
:104250000201A163416B0907A0D5A16B41F00801E0
:10426000A163416B89069CD5A16B41F02001A1633C
:10427000416BC90698D5A16B41F01001A163416B58
:10428000890594D497E700BF0120002184F8340009
:104290002046216301B0BDE8F040FFF7E3BD00BF59
:1042A000A80711D0206C46F22571C0F60001016507
:1042B000FEF73EFA00283FF4F6AE206C01B0BDE8F0
:1042C000F04002F02FBA00BF00210120A16384F862
:1042D00034002046216301B0BDE8F040FFF72CBD5B
:1042E00010B5D8B1044690F8340020B900202077EA
:1042F000204600F029F9032084F83400204600F01D
:104300000FF800284FF0010018BF10BD0021A16375
:10431000216384F83400002010BD00BF012010BDCF
:10432000F0B58FB004460068762100260291002186
:10433000002200230096019601F0CEFD4FF001050A
:1043400010B128460FB0F0BD48F2A007C4F22527EF
:104350003E60206801F0D6FD3D600496206801F0C3
:104360004FFE48B1012584F83450A16B0843A06387
:1043700028460FB0F0BD00BF206801F071FE68B1A3
:1043800020680021A16401F03BFE0028EAD1A06C66
:1043900004F14406012805D00CE000BF0120A06410
:1043A00004F144062068002101F0BEFD10B14FF079
:1043B0008050D7E704984FF6FE77B84224D80025FE
:1043C000CCF210152068002101F0AEFD0028C9D103
:1043D0002068294601F0B4FD0028E8D120680021BA
:1043E00001F070FD0499013104910499B94202D899
:1043F000B0F1FF3FE6DC04994FF6FE72914206D819
:10440000400007D5012006E00498B84202D94FF0D9
:104410008070A7E70020306020680125ADF80E50BD
:1044200001F04CFD90B1606C032813D12068042189
:1044300001F048FD000DE06404A92046FFF714FDDB
:10444000002855D04FF080508DE700BF4FF08060BE
:1044500089E700BF206801F07BFE00287FF483AF6E
:104460002068002101F02EFD2168606708460421C4
:1044700001F028FD2168A0670846082101F022FD0F
:104480002168E06708460C2101F01CFD616CC4F84E
:1044900080000329CAD020680DF10E0101F00EFF43
:1044A00000287FF460AF606C0328BFD0BDF80E1009
:1044B00020682165090401F099FE00287FF453AFBC
:1044C0002068002101F0FEFC216860660846042196
:1044D00001F0F8FC2168A0660846082101F0F2FC12
:1044E0002168E06608460C2101F0ECFC20679DE79E
:1044F000216D20680A04002301F01EFE00287FF4CD
:1045000032AF94E88F00D4E90565CDE900760295D5
:1045100001F0E2FC20684FF4007101F059FD78B120
:10452000216840F2FF52C0F240028A63A16B01256C
:104530000843A06384F8345028460FB0F0BD00BF94
:10454000002528460FB0F0BD70470000F0B587B0D9
:104550000446A9B194F83400012819D14FF0000C99
:10456000C4F838C0E06D1E4613441546834213D983
:10457000A06B40F00070A063012007B0F0BD00BF49
:10458000A06B40F00060A063012007B0F0BD00BF49
:10459000022007B0F0BD00BF032084F83400236878
:1045A000206CC3F82CC0DF6B0A4640F22A31394335
:1045B000D96346F2E161C0F60001C16346F2696168
:1045C000C0F60001C0E9131C0168C0F808C00F68FC
:1045D00027F0C0070F60770203F18001BB08FEF7E8
:1045E00093FA98B12068C16B21F49571C16340F2D0
:1045F000FF51C0F240018163A06B40F08040A06396
:10460000012084F8340007B0F0BD00BF48F28C50A0
:10461000C4F2252001210160606C01284FF0FF30B9
:1046200018BF6D02CDE9010790200390022004908D
:10463000002005902068069101A901F02BFC022EB4
:1046400006D3822020632068294601F05DFD05E045
:10465000812020632068294601F062FD0146002880
:104660004FF000000DD0226840F2FF53C0F240032B
:104670009363A26B1143A163012184F8341020637A
:10468000012007B0F0BD0000FCF7D6BDFCF712BE5C
:10469000F0B587B00446A9B194F83400012819D1C7
:1046A0004FF0000EC4F838E0E06D1E46134483421C
:1046B00014D9A06B012740F00070A063384607B002
:1046C000F0BD00BFA06B012740F00060A06338463A
:1046D00007B0F0BD0227384607B0F0BD032084F8CC
:1046E00034002068E36BD4F844C0C0F82CE0C76BFA
:1046F0000D4640F21A213943C16346F29171C0F66A
:104700000001D96346F26961C0F60001BCF1010FF6
:10471000D96418BF5202022EC3F850E010D3A02172
:104720002163114601F040FE88B1216840F2FF523A
:10473000C0F240028A63A16B012708432CE000BF4E
:1047400090212163114601F03BFE0028EDD148F293
:104750008C50C4F2252001270760E06B40220368DB
:10476000216882601A68760267F387121A6001F185
:104770008002B3082946FEF7C7F9A8B1206840F2C5
:104780001A22C16B9143C16340F2FF51C0F2400154
:104790008163A06B40F08040A063002084F83470F7
:1047A0002063384607B0F0BD4FF0FF30CDE9010679
:1047B000902003900020CDE90400206801A906970D
:1047C00001F068FB0027384607B0F0BD70470000D5
:1047D00070470000002804BF0120704710B5044650
:1047E00090F83D0028B9002084F83C00204600F0F5
:1047F0001FF8022084F83D002068211D04F07AFA99
:10480000012084F8460084F83E0084F83F0084F8D4
:10481000400084F8410084F8420084F8430084F8A2
:10482000440084F8450084F83D00002010BD0000DD
:104830007047000090F83D1001291CBF012070470F
:10484000022180F83D10006841F2FF72C168C4F295
:104850000002904241F00101C1600DDC40F2FF71A5
:10486000C4F20001884215DCB0F1804F2AD040F23A
:104870000041C4F2000123E040F2FF31C4F2010123
:10488000884213DC41F60001C4F20001884219D0CD
:10489000002113E040F60001C4F20001884211D06B
:1048A00040F60041C4F200010AE000BF44F20001FA
:1048B000C4F20101884205D040F20041C4F2010176
:1048C000884206D1816801F00701062904BF002053
:1048D0007047016841F0010101600020704700004D
:1048E0007047000010B5016804460869800744BF9E
:1048F000C8685FEA807039D40869400744BFC86857
:104900005FEA40703ED40869000744BFC8685FEAA8
:10491000007045D40869C00644BFC8685FEAC0603B
:104920004AD40869C0071CBFC8685FEAC07051D18B
:104930000869000644BFC8685FEA006052D408698D
:10494000400644BFC8685FEA406053D408698006E7
:1049500046BFC8685FEA806010BD6FF02002204645
:104960000A61BDE81040FFF733BF00BF6FF00200DF
:104970000861012020778869800743D02046FFF72F
:10498000AFFF45E06FF004000861022020778869DE
:1049900010F4407F40D02046FFF7A2FF42E000BF66
:1049A0006FF00800086104202077C86980073DD0B7
:1049B0002046FFF795FF3FE06FF0100008610820E8
:1049C0002077C86910F4407F3AD02046FFF788FF6F
:1049D0003CE000BF6FF001000861204600F03EF8A7
:1049E0002168A5E76FF0800008612046FFF7EEFE22
:1049F0002168A4E76FF040000861204600F040F80D
:104A00002168A3E7204600F025F8204600F024F8AE
:104A10002168002020776FE7204600F01BF8204631
:104A200000F01AF82168002020776CE7204600F09B
:104A300011F8204600F010F821680020207769E77F
:104A4000204600F007F8204600F006F82168002014
:104A5000207766E77047000070470000006841F269
:104A60000001C4F20001884218BF704740F25C4068
:104A7000C2F20000016801310160FEF795B9000043
:104A80007047000010B586B00020019043F630005A
:104A9000C4F202000168012441F080010160006855
:104AA00001A900F0800001900198302001900220BF
:104AB000049041F60040C4F20200CDE90244FEF742
:104AC00087F848F29020C4F243204460046006B0A6
:104AD00010BD00002DE9F04F83B041F60042C4F252
:104AE0000202116848F2902521F4406111601168BA
:104AF0000190C4F2432500201160286028204FF067
:104B0000000B0DF081FA0120286055F87C0C01277C
:104B1000002818BF0120029028200DF075FA2820E7
:104B2000C5F800B00DF070FA2F6055F87C6C2820A5
:104B30000DF06AFA2820C5F800B00DF065FA2F6074
:104B400055F87C4C2820002C18BF01240DF05CFA8D
:104B50002820C5F800B00DF057FA2F6055F87C8C6E
:104B600028200DF051FA2820C5F800B00DF04CFABD
:104B70002F6055F87C9C2820B9F1000F18BF4FF02A
:104B800001090DF041FA2820C5F800B00DF03CFAFB
:104B90002F6055F87CAC28200DF036FA2820C5F897
:104BA00000B00DF031FA2F6055F87CBC28200127A9
:104BB000BBF1000F18BF4FF0010B0DF025FA0020DC
:104BC000286028200DF020FA2F6055F87C7C2820E2
:104BD0000DF01AFA002041F600422860C4F20202E9
:104BE0001068019920F4406010601068B1FA81F1FA
:104BF00040F4806049091060282069600DF004FAD3
:104C00000120286028200DF0FFF9002E18BF012692
:104C10000298B8F1000F46EA40004FEA800040EAEF
:104C2000440018BF4FF001084044800040EA4900AA
:104C3000BAF1000F18BF4FF0010A5044800040EA5B
:104C40004B00002F18BF012738440021C0B2296053
:104C500003B0BDE8F08F0000F0B581B041F600412F
:104C6000C4F202010A68044622F440620A600A683B
:104C700048F2902542F480600860C4F24325002683
:104C8000E0092E60686028200DF0BEF90127282079
:104C90002F600DF0B9F928202E600DF0B5F9C4F39E
:104CA0008010686028200DF0AFF928202F600DF0EB
:104CB000ABF928202E600DF0A7F9C4F3401068600E
:104CC00028200DF0A1F928202F600DF09DF9282053
:104CD0002E600DF099F9C4F30010686028200DF0E3
:104CE00093F928202F600DF08FF928202E600DF009
:104CF0008BF9C4F3C000686028200DF085F92820E6
:104D00002F600DF081F928202E600DF07DF9C4F39D
:104D10008000686028200DF077F928202F600DF0C2
:104D200073F928202E600DF06FF9C4F3400068601D
:104D300028200DF069F928202F600DF065F9282052
:104D40002E600DF061F904F00100686028200DF07C
:104D50005BF928202F600DF057F928202E6001B054
:104D6000BDE8F0400DF050B9B0B541F60040C4F2D6
:104D70000200016848F2902421F44061016001685A
:104D8000C4F2432441F4806101600120606020602E
:104D900028200DF039F90025282065600DF034F940
:104DA0002560B0BDB0B541F60040C4F20200016814
:104DB00048F2902421F4406101600168C4F2432468
:104DC00041F48061016000202060606028200DF0C7
:104DD0001BF90125282025600DF016F96560B0BD8E
:104DE00070B541F60044C4F20204206848F214256C
:104DF00020F4406020602068C4F243252060012632
:104E00002820C5F880600DF0FFF82820EE670DF02F
:104E1000FBF80020296859B1296849B1296839B1DE
:104E2000F72809D8296819B1043029680029F3D175
:104E300000242046EC6770BD206820F440602060AC
:104E4000206840F4806020600020E867C5F880009A
:104E500028200DF0D9F801242820EC670DF0D4F8B3
:104E60002046C5F8804070BD2DE9F04F94B08E46C5
:104E7000C168D0E901720590036881EA02003840F8
:104E800048400D460891DEF800100993139119442B
:104E900008444AF27841CDF26A710844DEE901A67D
:104EA00007EB706382EA07001840504005EB0A01E7
:104EB00008444BF25671CEF6C701084403EB30515B
:104EC00083EA07000840079278403244104447F2D2
:104ED000DB02C2F220421044DEF80CC001EBF030DD
:104EE00081EA030202405A4007EB0C052A444CF6C3
:104EF000EE65CCF2BD152A44069700EBB22280EA9B
:104F00000105DEF8107015404D403B442B4440F63F
:104F1000AF75CFF27C552B440C9702EB736582EA98
:104F20000003DEF814702B404340394419444CF21E
:104F30002A63C4F28773194405EB315485EA0201F0
:104F4000DEF81880214051404044084444F2136187
:104F5000CAF630010844CDF810C004EBF03C84EAF6
:104F60000500DEF81C1000EA0C000E9168401144A8
:104F7000084449F20151CFF6465108440CEBB022E7
:104F80008CEA0400DEF8201010400B9160402944A8
:104F9000084449F6D801C6F68011084402EB706552
:104FA00082EA0C00DEF82490284080EA0C0009EB2D
:104FB000040108444FF2AF71C8F64431084405EBD0
:104FC000305385EA0200DEF828401840504004EBD8
:104FD0000C0108444AF24F41401A0A9703EBF031A2
:104FE00083EA0500DEF82C70084068403A4410441B
:104FF0004DF2BE72C8F65C121044119601EBB0225D
:1050000081EA0300DEF830601040584035442844FF
:1050100041F22215C6F69035284402EB706082EA10
:105020000105DEF834B000EA050C8CEA010C5B44A3
:1050300047F293156344CFF698552B440D9600EB39
:10504000335380EA0205DEF838601D405540314494
:10505000294444F28E35CAF279652944B44603EBFB
:10506000F13183EA0005DEF83C600D4045403244F2
:105070002A4440F62105C4F6B4152A4401EBB222B5
:1050800082EA01051D404D405044284442F26255D9
:10509000CFF21E65284402EBF06080EA02050D4065
:1050A000554043442B444BF24035CCF240052B4451
:1050B00000EBF35383EA0005154045403944294489
:1050C00045F65125C2F25E65294403EBB1410F97C5
:1050D00081EA0305139F05405D403A442A444CF29F
:1050E000AA75CEF6B6152A4401EB323282EA0105E2
:1050F0000A9F1D404D403844284441F25D05CDF2E1
:105100002F65284402EBF06080EA02050D4055400F
:1051100023442B4441F25345C0F244252B4400EB79
:10512000F35383EA000515404540314429444EF2CB
:105130008165CDF6A105294403EBB14181EA030560
:10514000DDF830E005405D4072442A444FF6C83532
:10515000CEF2D3752A4401EB323282EA01051D40BA
:105160004D40484428444CF6E655C2F2E115284427
:1051700002EBF06080EA02050D40554063442B4489
:1051800040F2D675CCF237352B4400EBF353CDF813
:10519000409083EA0005DDF81090154045404944F1
:1051A000294440F68755CFF2D545294403EBB14158
:1051B000029681EA03050B9E05405D4032442A4475
:1051C00041F2ED45C4F25A552A4401EB323282EAEB
:1051D00001051D404D40584428444EF60515CAF6B9
:1051E000E315284402EBF060019480EA0205119C6B
:1051F0000D40554023442B444AF2F835CFF6EF4595
:105200002B4400EBF353CDF80C80E046CDF800C002
:1052100083EA0005DDF838C0154045406144294463
:1052200040F2D925C6F26F75294403EBB14181EAFA
:1052300003050D9CCDF848A0DA4605EA000B8BEA81
:10524000030B224444F68A445A44C8F62A542244A2
:1052500001EB323285EA02043844204443F642141A
:10526000CFF6FA74204402EB307082EA0104444025
:10527000334423444FF28164C8F2717423440F9D78
:1052800000EB735380EA02045C402944214446F257
:105290002214C6F69D54214403EB314183EA0004F5
:1052A0004C404244224443F60C04CFF6E5542244D9
:1052B000129D01EB722281EA0304544028442044E9
:1052C0004EF64424CAF2BE44204402EB307082EA17
:1052D00001044440734423444CF6A974C4F6DE34FC
:1052E000234400EB735380EA02045C406144214490
:1052F00044F66034CFF2BB642144019E03EB31419C
:1053000083EA00044C40324422444BF67044CBF60E
:10531000BF64224401EB722281EA030454405044EA
:10532000204447F6C664C2F69B042044139D02EB5A
:10533000307082EA010444402B44234442F2FA7460
:10534000CEF6A124234400EB735380EA02045C40B0
:105350004944214443F28504CDF2EF442144DDF871
:105360000CE003EB314183EA00044C4072442244D8
:1053700041F60554C0F288442244109F01EB72228A
:1053800081EA03045440384420444DF23904CDF6F8
:10539000D4142044DDF8348002EB307082EA01043A
:1053A00044404344234449F6E514CEF2DB642344ED
:1053B000DDF808C000EB735380EA02045C406144EE
:1053C000214447F6F844C1F6A2742144DDF844B004
:1053D00003EB314183EA00044C405A44224445F235
:1053E0006564CCF2AC44224401EB722262EA03040D
:1053F00028444C40204442F24424CFF22944204423
:105400000E9C02EBB060234460EA01045440234444
:105410004FF69774C4F22A342344009C00EBB35334
:1054200063EA020521444540294442F2A735CAF601
:10543000943529440A9C03EB714161EA000522443A
:105440005D402A444AF23905CFF693452A4401EBE0
:10545000F22262EA030540444D40284445F6C31554
:10546000C6F25B55284402EBB06060EA01054B448C
:1054700055402B444CF69245C8F60C752B4400EB76
:10548000B35363EA02053144454029444FF27D4558
:10549000CFF6EF752944129C03EB714161EA0005D8
:1054A00022445D402A4445F6D155C8F284552A4429
:1054B0000B9C01EBF22262EA030520444D40284494
:1054C00047F64F65C6F6A875284402EBB06060EA5F
:1054D0000105634455402B444EF2E065CFF62C6540
:1054E0002B4400EBB35363EA020571444540294461
:1054F00044F21435CAF20135294403EB714161EAE3
:10550000000552445D402A4441F2A115C4F60865E5
:105510002A4401EBF2220C9F62EA030538444D4015
:10552000284447F68265CFF25375284402EBB060F9
:105530000F9F60EA01053B4455402B444FF235254F
:10554000CBF63A552B4400EBB35363EA02055944BA
:10555000454029444DF2BB25C2F6D725294403EB2B
:105560007141109F61EA00053A445D402A444DF2C2
:105570009135069FCEF686352A440F4407EBF2227A
:10558000079F099D3944089F28443B44059FC7E96C
:105590000002C7E9021314B0BDE8F08F80B5002007
:1055A0000BF0A8FD80BD000010B586B0002043F6CA
:1055B00030010190C4F202010A6842F002020A605E
:1055C000096801F00201019101994FF48051CDE980
:1055D0000110012003900320049040F20040C4F227
:1055E000020001A9FDF7F4FAFFF74CFAFFF7BCFB44
:1055F0004020FFF731FBFFF7F3FB0446FFF7D2FB38
:10560000FFF7B2FB4020FFF727FBFFF7E9FBFF2086
:10561000FFF722FBFFF7E4FBFFF7C4FB42F2107039
:105620000CF0F2FC204606B010BD000070B582B050
:105630000C460546FFF798FB4120FFF70DFBFFF7EF
:10564000CFFB0020FFF746FA0646FFF7ABFB8DF8CD
:10565000076001219DF80700002C01FA05F114BF35
:10566000084388438DF807009DF80740FFF77CFB4F
:105670004020FFF7F1FAFFF7B3FB2046FFF7ECFA03
:10568000FFF7AEFBFFF78EFB42F2107002B0BDE8F1
:1056900070400CF0B9BC0000017D012904D1417DAE
:1056A000012904BFC069704740F6637042F6454166
:1056B000C0F60C00C0F60C0140F2111203F064FDBC
:1056C00080B5017D012913D1417D012910D100F15F
:1056D00018030ECBA2FB0101A0FB030201FB032177
:1056E00044F24022C0F20F020023FAF781FD80BD90
:1056F00040F6637042F64541C0F60C00C0F60C015E
:105700004FF49D7203F040FD017D012904D1417DDC
:10571000012904BF8069704740F66370C0F60C0031
:1057200002A14FF4827203F02FFD00BF2E2E2F4DE9
:105730006964646C6577617265732F706A70726FEB
:105740006A6563742F706A6D656469612F696E6341
:105750006C7564655C706A6D656469612F706F72E9
:10576000742E680010B543F64864CCF20004D4F8F7
:10577000CC043CF0B1FE47F0E9FCD4F8D014C4F8F6
:10578000D404481CC4F8D00410BD000080B582B019
:10579000019000910198009900F014F828B1FFE7FA
:1057A0000099086801380860FFE700980430019903
:1057B0008EF096FA02B080BD81B00090009800682B
:1057C00001B0704780B582B001900091FFE7FFE71C
:1057D0000098043001998EF0F1FA02B080BD00000B
:1057E00080B582B00190009101980099FFF7EAFF1F
:1057F00028B9FFE70099086801300860FFE70098C2
:10580000043001998EF000FB02B080BD80B582B0FB
:1058100001904FF2FB50C0F60B009021042284232C
:10582000A2F08EFE019804308EF01CFB019900203E
:10583000086002B080BD0000000000000000000011
:10584000EFF30980BFF36F8F154B1A681EF0100F2E
:1058500008BF20ED108A20E9F04F10602DE9090003
:105860004FF0200080F31188BFF34F8FBFF36F8F8D
:10587000A0F08EF94FF0000080F31188BDE8090018
:1058800019680868B0E8F04F1EF0100F08BFB0ECC0
:10589000108A80F30988BFF36F8F704700BF00BF85
:1058A00024010020B0B540F2804445F60401C2F264
:1058B0000004C4F2010121600A68054622F4803028
:1058C00008602046FEF70AF80020042104F11403C2
:1058D0004FF480124FF0800C27C340214FF48025F5
:1058E000C4E90100C4E90300C4E90A00C4E90C00EA
:1058F000C4E90EC0C4E9100120214FF48032022314
:105900004FF0030EC4E91405C4E9160C2046C4E99F
:105910001212C4E9183EFEF729F82068016841F424
:1059200080310160016841F400310160B0BD0000C8
:105930002DE9F04383B090468946022B064607D0F6
:10594000012B0BD14FF400614FF4005008E000BF71
:105950004FF480514FF4804002E000BF002000214E
:10596000002243F630030292C4F202031F684FF490
:10597000807547F480071F601B6840F2905703F45E
:1059800080030293029BC2F2000746F28843C7E9F4
:1059900006054FF48030C4F202034FF48064C7E977
:1059A00008023846C7E90032C7E90222C7E90441C4
:1059B000C7E90B22FCF7CEFE40F6A101C0F60901B3
:1059C00040F67900796440F20851C0F60900C2F24D
:1059D0000001C7E90E1038464F67FCF7E3FF45F6B4
:1059E0004001C4F20101384632464B46CDF80080F2
:1059F000FCF764FE3868016821F00101016003B022
:105A0000BDE8F0832DE9F04782B090468946022B2D
:105A1000824607D0012B0BD14FF400614FF40050A8
:105A200008E000BF4FF480514FF4804002E000BF17
:105A300000200021002243F630030192C4F2020349
:105A40001F684FF4807647F480071F601B6840F2A0
:105A5000F05703F480030193019BC2F2000746F262
:105A60002843C7E906064FF40030C4F2020340247D
:105A70004FF48065C7E908023846C7E90032C7E934
:105A80000242C7E90451C7E90B22FCF763FE40F666
:105A9000C900C0F60900F86340F6F100C0F609003D
:105AA00078643846FCF77EFF40F28040C2F2000086
:105AB00045F620020767B863C4F201023846514632
:105AC0004B46CDF80080FCF7F9FD3868016821F0FD
:105AD0000101016002B0BDE8F087000070B540F23E
